{"abi":[{"type":"constructor","inputs":[{"name":"name_","type":"string","internalType":"string"},{"name":"symbol_","type":"string","internalType":"string"},{"name":"contractOwner","type":"address","internalType":"address"},{"name":"contractAdmin","type":"address","internalType":"address"},{"name":"externalWallet","type":"address","internalType":"address"}],"stateMutability":"nonpayable"},{"type":"fallback","stateMutability":"payable"},{"type":"receive","stateMutability":"payable"},{"type":"function","name":"ADMIN_ROLE","inputs":[],"outputs":[{"name":"","type":"bytes32","internalType":"bytes32"}],"stateMutability":"view"},{"type":"function","name":"BASE_PRICE","inputs":[],"outputs":[{"name":"","type":"uint128","internalType":"uint128"}],"stateMutability":"view"},{"type":"function","name":"COLOR_MODE_THRESHOLD","inputs":[],"outputs":[{"name":"","type":"uint256","internalType":"uint256"}],"stateMutability":"view"},{"type":"function","name":"COMMITMENT_DELAY","inputs":[],"outputs":[{"name":"","type":"uint64","internalType":"uint64"}],"stateMutability":"view"},{"type":"function","name":"DEFAULT_ADMIN_ROLE","inputs":[],"outputs":[{"name":"","type":"bytes32","internalType":"bytes32"}],"stateMutability":"view"},{"type":"function","name":"EXTERNAL_WALLET","inputs":[],"outputs":[{"name":"","type":"address","internalType":"address"}],"stateMutability":"view"},{"type":"function","name":"MAX_PRODUCT","inputs":[],"outputs":[{"name":"","type":"uint256","internalType":"uint256"}],"stateMutability":"view"},{"type":"function","name":"MAX_SUPPLY","inputs":[],"outputs":[{"name":"","type":"uint256","internalType":"uint256"}],"stateMutability":"view"},{"type":"function","name":"NONCE_MULTIPLIER","inputs":[],"outputs":[{"name":"","type":"uint256","internalType":"uint256"}],"stateMutability":"view"},{"type":"function","name":"PRICE_INCREMENT","inputs":[],"outputs":[{"name":"","type":"uint128","internalType":"uint128"}],"stateMutability":"view"},{"type":"function","name":"TOKENS_PER_DAY","inputs":[],"outputs":[{"name":"","type":"uint16","internalType":"uint16"}],"stateMutability":"view"},{"type":"function","name":"approve","inputs":[{"name":"to","type":"address","internalType":"address"},{"name":"tokenId","type":"uint256","internalType":"uint256"}],"outputs":[],"stateMutability":"nonpayable"},{"type":"function","name":"artNFTs","inputs":[{"name":"","type":"uint256","internalType":"uint256"}],"outputs":[{"name":"mintedAt","type":"uint256","internalType":"uint256"},{"name":"useColorMode","type":"bool","internalType":"bool"}],"stateMutability":"view"},{"type":"function","name":"availablePixels","inputs":[{"name":"","type":"address","internalType":"address"}],"outputs":[{"name":"","type":"uint256","internalType":"uint256"}],"stateMutability":"view"},{"type":"function","name":"balanceOf","inputs":[{"name":"owner","type":"address","internalType":"address"}],"outputs":[{"name":"","type":"uint256","internalType":"uint256"}],"stateMutability":"view"},{"type":"function","name":"commitmentTimestamps","inputs":[{"name":"","type":"address","internalType":"address"}],"outputs":[{"name":"","type":"uint256","internalType":"uint256"}],"stateMutability":"view"},{"type":"function","name":"commitments","inputs":[{"name":"","type":"address","internalType":"address"}],"outputs":[{"name":"","type":"bytes32","internalType":"bytes32"}],"stateMutability":"view"},{"type":"function","name":"countBlackPixels","inputs":[{"name":"artData","type":"bytes32[4]","internalType":"bytes32[4]"}],"outputs":[{"name":"pixelCount","type":"uint256","internalType":"uint256"}],"stateMutability":"pure"},{"type":"function","name":"currentPrice","inputs":[],"outputs":[{"name":"price","type":"uint256","internalType":"uint256"}],"stateMutability":"view"},{"type":"function","name":"deploymentTime","inputs":[],"outputs":[{"name":"","type":"uint64","internalType":"uint64"}],"stateMutability":"view"},{"type":"function","name":"generateArtHash","inputs":[{"name":"artData","type":"bytes32[4]","internalType":"bytes32[4]"}],"outputs":[{"name":"","type":"bytes32","internalType":"bytes32"}],"stateMutability":"pure"},{"type":"function","name":"getApproved","inputs":[{"name":"tokenId","type":"uint256","internalType":"uint256"}],"outputs":[{"name":"","type":"address","internalType":"address"}],"stateMutability":"view"},{"type":"function","name":"getArtData","inputs":[{"name":"tokenId","type":"uint256","internalType":"uint256"}],"outputs":[{"name":"artData","type":"bytes32[4]","internalType":"bytes32[4]"},{"name":"useColorMode","type":"bool","internalType":"bool"}],"stateMutability":"view"},{"type":"function","name":"getRoleAdmin","inputs":[{"name":"role","type":"bytes32","internalType":"bytes32"}],"outputs":[{"name":"","type":"bytes32","internalType":"bytes32"}],"stateMutability":"view"},{"type":"function","name":"grantRole","inputs":[{"name":"role","type":"bytes32","internalType":"bytes32"},{"name":"account","type":"address","internalType":"address"}],"outputs":[],"stateMutability":"nonpayable"},{"type":"function","name":"hasRole","inputs":[{"name":"role","type":"bytes32","internalType":"bytes32"},{"name":"account","type":"address","internalType":"address"}],"outputs":[{"name":"","type":"bool","internalType":"bool"}],"stateMutability":"view"},{"type":"function","name":"isApprovedForAll","inputs":[{"name":"owner","type":"address","internalType":"address"},{"name":"operator","type":"address","internalType":"address"}],"outputs":[{"name":"","type":"bool","internalType":"bool"}],"stateMutability":"view"},{"type":"function","name":"isArtUnique","inputs":[{"name":"artHash","type":"bytes32","internalType":"bytes32"}],"outputs":[{"name":"","type":"bool","internalType":"bool"}],"stateMutability":"view"},{"type":"function","name":"mintNFT","inputs":[{"name":"artData","type":"bytes32[4]","internalType":"bytes32[4]"},{"name":"useColorMode","type":"bool","internalType":"bool"}],"outputs":[],"stateMutability":"payable"},{"type":"function","name":"mintedArts","inputs":[{"name":"","type":"bytes32","internalType":"bytes32"}],"outputs":[{"name":"","type":"bool","internalType":"bool"}],"stateMutability":"view"},{"type":"function","name":"mintingStopped","inputs":[],"outputs":[{"name":"","type":"bool","internalType":"bool"}],"stateMutability":"view"},{"type":"function","name":"name","inputs":[],"outputs":[{"name":"","type":"string","internalType":"string"}],"stateMutability":"view"},{"type":"function","name":"ownerOf","inputs":[{"name":"tokenId","type":"uint256","internalType":"uint256"}],"outputs":[{"name":"","type":"address","internalType":"address"}],"stateMutability":"view"},{"type":"function","name":"paused","inputs":[],"outputs":[{"name":"","type":"bool","internalType":"bool"}],"stateMutability":"view"},{"type":"function","name":"renounceRole","inputs":[{"name":"role","type":"bytes32","internalType":"bytes32"},{"name":"callerConfirmation","type":"address","internalType":"address"}],"outputs":[],"stateMutability":"nonpayable"},{"type":"function","name":"requestAvailableBlockUpdate","inputs":[],"outputs":[],"stateMutability":"nonpayable"},{"type":"function","name":"revokeRole","inputs":[{"name":"role","type":"bytes32","internalType":"bytes32"},{"name":"account","type":"address","internalType":"address"}],"outputs":[],"stateMutability":"nonpayable"},{"type":"function","name":"safeTransferFrom","inputs":[{"name":"from","type":"address","internalType":"address"},{"name":"to","type":"address","internalType":"address"},{"name":"tokenId","type":"uint256","internalType":"uint256"}],"outputs":[],"stateMutability":"nonpayable"},{"type":"function","name":"safeTransferFrom","inputs":[{"name":"from","type":"address","internalType":"address"},{"name":"to","type":"address","internalType":"address"},{"name":"tokenId","type":"uint256","internalType":"uint256"},{"name":"data","type":"bytes","internalType":"bytes"}],"outputs":[],"stateMutability":"nonpayable"},{"type":"function","name":"setApprovalForAll","inputs":[{"name":"operator","type":"address","internalType":"address"},{"name":"approved","type":"bool","internalType":"bool"}],"outputs":[],"stateMutability":"nonpayable"},{"type":"function","name":"setTestMode","inputs":[{"name":"isTest","type":"bool","internalType":"bool"}],"outputs":[],"stateMutability":"nonpayable"},{"type":"function","name":"startMinting","inputs":[{"name":"commitmentHash","type":"bytes32","internalType":"bytes32"}],"outputs":[],"stateMutability":"payable"},{"type":"function","name":"stopMinting","inputs":[],"outputs":[],"stateMutability":"nonpayable"},{"type":"function","name":"supportsInterface","inputs":[{"name":"interfaceId","type":"bytes4","internalType":"bytes4"}],"outputs":[{"name":"","type":"bool","internalType":"bool"}],"stateMutability":"view"},{"type":"function","name":"symbol","inputs":[],"outputs":[{"name":"","type":"string","internalType":"string"}],"stateMutability":"view"},{"type":"function","name":"testMode","inputs":[],"outputs":[{"name":"","type":"bool","internalType":"bool"}],"stateMutability":"view"},{"type":"function","name":"tokenCounter","inputs":[],"outputs":[{"name":"","type":"uint16","internalType":"uint16"}],"stateMutability":"view"},{"type":"function","name":"tokenURI","inputs":[{"name":"tokenId","type":"uint256","internalType":"uint256"}],"outputs":[{"name":"","type":"string","internalType":"string"}],"stateMutability":"view"},{"type":"function","name":"totalSupply","inputs":[],"outputs":[{"name":"","type":"uint256","internalType":"uint256"}],"stateMutability":"view"},{"type":"function","name":"transferFrom","inputs":[{"name":"from","type":"address","internalType":"address"},{"name":"to","type":"address","internalType":"address"},{"name":"tokenId","type":"uint256","internalType":"uint256"}],"outputs":[],"stateMutability":"nonpayable"},{"type":"function","name":"updateAvailableBlocks","inputs":[{"name":"user","type":"address","internalType":"address"},{"name":"nonce","type":"uint256","internalType":"uint256"},{"name":"firstTxTime","type":"uint256","internalType":"uint256"}],"outputs":[],"stateMutability":"nonpayable"},{"type":"function","name":"withdraw","inputs":[],"outputs":[],"stateMutability":"nonpayable"},{"type":"event","name":"Approval","inputs":[{"name":"owner","type":"address","indexed":true,"internalType":"address"},{"name":"approved","type":"address","indexed":true,"internalType":"address"},{"name":"tokenId","type":"uint256","indexed":true,"internalType":"uint256"}],"anonymous":false},{"type":"event","name":"ApprovalForAll","inputs":[{"name":"owner","type":"address","indexed":true,"internalType":"address"},{"name":"operator","type":"address","indexed":true,"internalType":"address"},{"name":"approved","type":"bool","indexed":false,"internalType":"bool"}],"anonymous":false},{"type":"event","name":"AvailableBlockUpdateRequested","inputs":[{"name":"user","type":"address","indexed":true,"internalType":"address"}],"anonymous":false},{"type":"event","name":"AvailablePixelsUpdated","inputs":[{"name":"user","type":"address","indexed":true,"internalType":"address"},{"name":"newAllowance","type":"uint256","indexed":false,"internalType":"uint256"}],"anonymous":false},{"type":"event","name":"CommitmentSubmitted","inputs":[{"name":"user","type":"address","indexed":true,"internalType":"address"},{"name":"commitmentHash","type":"bytes32","indexed":true,"internalType":"bytes32"}],"anonymous":false},{"type":"event","name":"FundsExtracted","inputs":[{"name":"to","type":"address","indexed":true,"internalType":"address"},{"name":"amount","type":"uint256","indexed":false,"internalType":"uint256"}],"anonymous":false},{"type":"event","name":"MintingHasStopped","inputs":[{"name":"paused","type":"bool","indexed":false,"internalType":"bool"}],"anonymous":false},{"type":"event","name":"NFTMinted","inputs":[{"name":"user","type":"address","indexed":true,"internalType":"address"},{"name":"tokenId","type":"uint256","indexed":true,"internalType":"uint256"},{"name":"artHash","type":"bytes32","indexed":true,"internalType":"bytes32"}],"anonymous":false},{"type":"event","name":"Paused","inputs":[{"name":"account","type":"address","indexed":false,"internalType":"address"}],"anonymous":false},{"type":"event","name":"RoleAdminChanged","inputs":[{"name":"role","type":"bytes32","indexed":true,"internalType":"bytes32"},{"name":"previousAdminRole","type":"bytes32","indexed":true,"internalType":"bytes32"},{"name":"newAdminRole","type":"bytes32","indexed":true,"internalType":"bytes32"}],"anonymous":false},{"type":"event","name":"RoleGranted","inputs":[{"name":"role","type":"bytes32","indexed":true,"internalType":"bytes32"},{"name":"account","type":"address","indexed":true,"internalType":"address"},{"name":"sender","type":"address","indexed":true,"internalType":"address"}],"anonymous":false},{"type":"event","name":"RoleRevoked","inputs":[{"name":"role","type":"bytes32","indexed":true,"internalType":"bytes32"},{"name":"account","type":"address","indexed":true,"internalType":"address"},{"name":"sender","type":"address","indexed":true,"internalType":"address"}],"anonymous":false},{"type":"event","name":"Transfer","inputs":[{"name":"from","type":"address","indexed":true,"internalType":"address"},{"name":"to","type":"address","indexed":true,"internalType":"address"},{"name":"tokenId","type":"uint256","indexed":true,"internalType":"uint256"}],"anonymous":false},{"type":"event","name":"Unpaused","inputs":[{"name":"account","type":"address","indexed":false,"internalType":"address"}],"anonymous":false},{"type":"error","name":"AccessControlBadConfirmation","inputs":[]},{"type":"error","name":"AccessControlUnauthorizedAccount","inputs":[{"name":"account","type":"address","internalType":"address"},{"name":"neededRole","type":"bytes32","internalType":"bytes32"}]},{"type":"error","name":"ActiveCommitmentExists","inputs":[]},{"type":"error","name":"ArtAlreadyMinted","inputs":[]},{"type":"error","name":"CommitmentDelayNotMet","inputs":[{"name":"remainingTime","type":"uint256","internalType":"uint256"}]},{"type":"error","name":"CommitmentMismatch","inputs":[]},{"type":"error","name":"DirectETHTransfersNotAllowed","inputs":[]},{"type":"error","name":"DivisionByZero","inputs":[]},{"type":"error","name":"DuplicateArt","inputs":[]},{"type":"error","name":"ERC721IncorrectOwner","inputs":[{"name":"sender","type":"address","internalType":"address"},{"name":"tokenId","type":"uint256","internalType":"uint256"},{"name":"owner","type":"address","internalType":"address"}]},{"type":"error","name":"ERC721InsufficientApproval","inputs":[{"name":"operator","type":"address","internalType":"address"},{"name":"tokenId","type":"uint256","internalType":"uint256"}]},{"type":"error","name":"ERC721InvalidApprover","inputs":[{"name":"approver","type":"address","internalType":"address"}]},{"type":"error","name":"ERC721InvalidOperator","inputs":[{"name":"operator","type":"address","internalType":"address"}]},{"type":"error","name":"ERC721InvalidOwner","inputs":[{"name":"owner","type":"address","internalType":"address"}]},{"type":"error","name":"ERC721InvalidReceiver","inputs":[{"name":"receiver","type":"address","internalType":"address"}]},{"type":"error","name":"ERC721InvalidSender","inputs":[{"name":"sender","type":"address","internalType":"address"}]},{"type":"error","name":"ERC721NonexistentToken","inputs":[{"name":"tokenId","type":"uint256","internalType":"uint256"}]},{"type":"error","name":"EnforcedPause","inputs":[]},{"type":"error","name":"ExcessiveETHSent","inputs":[]},{"type":"error","name":"ExpectedPause","inputs":[]},{"type":"error","name":"FallbackTransactionsNotAllowed","inputs":[]},{"type":"error","name":"InsufficientETHSent","inputs":[]},{"type":"error","name":"InvalidAddress","inputs":[]},{"type":"error","name":"InvalidCommitmentHash","inputs":[]},{"type":"error","name":"InvalidResetState","inputs":[]},{"type":"error","name":"InvalidTimestamp","inputs":[]},{"type":"error","name":"MaxSupplyReached","inputs":[]},{"type":"error","name":"MintingStopped","inputs":[]},{"type":"error","name":"NoFeeRequired","inputs":[]},{"type":"error","name":"NoValidCommitment","inputs":[]},{"type":"error","name":"NotAdminOrOwner","inputs":[]},{"type":"error","name":"NotEOA","inputs":[]},{"type":"error","name":"NotEnoughAvailablePixels","inputs":[]},{"type":"error","name":"PixelLimitExceeded","inputs":[]},{"type":"error","name":"ReentrancyGuardReentrantCall","inputs":[]},{"type":"error","name":"TokenDoesNotExist","inputs":[]},{"type":"error","name":"TransferFailed","inputs":[]}],"bytecode":{"object":"0x6101c0604052348015610010575f5ffd5b506040516154a23803806154a2833981810160405281019061003291906104fe565b8484815f908161004291906107bd565b50806001908161005291906107bd565b5050505f60075f6101000a81548160ff02191690831515021790555060016008819055506100885f5f1b846101f660201b60201c565b505f7fa49807205ce4d355092ef5a8a18f56e8913cf4a201fbe287825b095693c2177590506100bd81846101f660201b60201c565b504267ffffffffffffffff1660a08167ffffffffffffffff16815250505f600d5f6101000a81548160ff021916908315150217905550600f67ffffffffffffffff1660808167ffffffffffffffff1681525050601861ffff1660c08161ffff16815250506611c37937e080006fffffffffffffffffffffffffffffffff1660e0816fffffffffffffffffffffffffffffffff1681525050662386f26fc100006fffffffffffffffffffffffffffffffff16610100816fffffffffffffffffffffffffffffffff16815250508173ffffffffffffffffffffffffffffffffffffffff166101208173ffffffffffffffffffffffffffffffffffffffff1681525050610200610140818152505060ff6101608181525050624f1a00610180818152505063a3e4c9806101a0818152505050505050505061088c565b5f61020783836102ec60201b60201c565b6102e257600160065f8581526020019081526020015f205f015f8473ffffffffffffffffffffffffffffffffffffffff1673ffffffffffffffffffffffffffffffffffffffff1681526020019081526020015f205f6101000a81548160ff02191690831515021790555061027f61035060201b60201c565b73ffffffffffffffffffffffffffffffffffffffff168273ffffffffffffffffffffffffffffffffffffffff16847f2f8788117e7eff1d82e926ec794901d17c78024a50270940304540a733656f0d60405160405180910390a4600190506102e6565b5f90505b92915050565b5f60065f8481526020019081526020015f205f015f8373ffffffffffffffffffffffffffffffffffffffff1673ffffffffffffffffffffffffffffffffffffffff1681526020019081526020015f205f9054906101000a900460ff16905092915050565b5f33905090565b5f604051905090565b5f5ffd5b5f5ffd5b5f5ffd5b5f5ffd5b5f601f19601f8301169050919050565b7f4e487b71000000000000000000000000000000000000000000000000000000005f52604160045260245ffd5b6103b682610370565b810181811067ffffffffffffffff821117156103d5576103d4610380565b5b80604052505050565b5f6103e7610357565b90506103f382826103ad565b919050565b5f67ffffffffffffffff82111561041257610411610380565b5b61041b82610370565b9050602081019050919050565b8281835e5f83830152505050565b5f610448610443846103f8565b6103de565b9050828152602081018484840111156104645761046361036c565b5b61046f848285610428565b509392505050565b5f82601f83011261048b5761048a610368565b5b815161049b848260208601610436565b91505092915050565b5f73ffffffffffffffffffffffffffffffffffffffff82169050919050565b5f6104cd826104a4565b9050919050565b6104dd816104c3565b81146104e7575f5ffd5b50565b5f815190506104f8816104d4565b92915050565b5f5f5f5f5f60a0868803121561051757610516610360565b5b5f86015167ffffffffffffffff81111561053457610533610364565b5b61054088828901610477565b955050602086015167ffffffffffffffff81111561056157610560610364565b5b61056d88828901610477565b945050604061057e888289016104ea565b935050606061058f888289016104ea565b92505060806105a0888289016104ea565b9150509295509295909350565b5f81519050919050565b7f4e487b71000000000000000000000000000000000000000000000000000000005f52602260045260245ffd5b5f60028204905060018216806105fb57607f821691505b60208210810361060e5761060d6105b7565b5b50919050565b5f819050815f5260205f209050919050565b5f6020601f8301049050919050565b5f82821b905092915050565b5f600883026106707fffffffffffffffffffffffffffffffffffffffffffffffffffffffffffffffff82610635565b61067a8683610635565b95508019841693508086168417925050509392505050565b5f819050919050565b5f819050919050565b5f6106be6106b96106b484610692565b61069b565b610692565b9050919050565b5f819050919050565b6106d7836106a4565b6106eb6106e3826106c5565b848454610641565b825550505050565b5f5f905090565b6107026106f3565b61070d8184846106ce565b505050565b5b81811015610730576107255f826106fa565b600181019050610713565b5050565b601f8211156107755761074681610614565b61074f84610626565b8101602085101561075e578190505b61077261076a85610626565b830182610712565b50505b505050565b5f82821c905092915050565b5f6107955f198460080261077a565b1980831691505092915050565b5f6107ad8383610786565b9150826002028217905092915050565b6107c6826105ad565b67ffffffffffffffff8111156107df576107de610380565b5b6107e982546105e4565b6107f4828285610734565b5f60209050601f831160018114610825575f8415610813578287015190505b61081d85826107a2565b865550610884565b601f19841661083386610614565b5f5b8281101561085a57848901518255600182019150602085019450602081019050610835565b868310156108775784890151610873601f891682610786565b8355505b6001600288020188555050505b505050505050565b60805160a05160c05160e05161010051610120516101405161016051610180516101a051614b296109795f395f8181611503015281816128d7015261293201525f81816121c1015261289e01525f8181610fc50152818161196a015281816119c40152611a5b01525f8181610fe901528181611edb015261250701525f8181610e3901528181611199015261125b01525f8181611cd3015261203301525f8181611fe601528181612071015261275701525f818161154d0152611f8701525f8181611f42015261270c01525f8181610d8e015281816117510152818161178401526124960152614b295ff3fe608060405260043610610302575f3560e01c80636d25d8021161018f578063b88d4fde116100db578063e8fcf72311610094578063f17ea18b1161006e578063f17ea18b14610c03578063f339292f14610c3f578063f86325ed14610c69578063fff56aef14610c9357610339565b8063e8fcf72314610b61578063e985e9c514610b9d578063ecda10f514610bd957610339565b8063b88d4fde14610a65578063c87b56dd14610a8d578063cd9ea34214610ac9578063d082e38114610af3578063d3f53c1914610b1d578063d547741f14610b3957610339565b80639d1b464a11610148578063a22cb46511610122578063a22cb4651461099b578063a2ba638e146109c3578063b3a45c46146109ff578063b3e201f714610a2957610339565b80639d1b464a146109315780639dddd0b61461095b578063a217fddf1461097157610339565b80636d25d802146107ff5780636f2449da1461082957806370a082311461086557806375b238fc146108a157806391d14854146108cb57806395d89b411461090757610339565b806332cb6b0c1161024e57806345961837116102075780635c975abb116101e15780635c975abb146107535780636352211e1461077d5780636678fee3146107b957806369051e7c146107e357610339565b806345961837146106b05780634bd1140b146106ed5780634be0d92b1461072957610339565b806332cb6b0c146105cd57806336568abe146105f75780633ccfd60b1461061f5780633d22a2a9146106355780633e3e0b121461067257806342842e0e1461068857610339565b80631b543980116102bb57806323b872dd1161029557806323b872dd14610517578063248a9ca31461053f5780632f2ff15d1461057b5780633223966a146105a357610339565b80631b543980146104895780631ecd6962146104c55780631ff1292f146104ef57610339565b806301ffc9a71461036b57806306fdde03146103a7578063081812fc146103d1578063095ea7b31461040d57806311a733f61461043557806318160ddd1461045f57610339565b36610339576040517f408d1c1b00000000000000000000000000000000000000000000000000000000815260040160405180910390fd5b6040517f128339b700000000000000000000000000000000000000000000000000000000815260040160405180910390fd5b348015610376575f5ffd5b50610391600480360381019061038c9190613ce6565b610cbb565b60405161039e9190613d2b565b60405180910390f35b3480156103b2575f5ffd5b506103bb610ccc565b6040516103c89190613db4565b60405180910390f35b3480156103dc575f5ffd5b506103f760048036038101906103f29190613e07565b610d5b565b6040516104049190613e71565b60405180910390f35b348015610418575f5ffd5b50610433600480360381019061042e9190613eb4565b610d76565b005b348015610440575f5ffd5b50610449610d8c565b6040516104569190613f14565b60405180910390f35b34801561046a575f5ffd5b50610473610db0565b6040516104809190613f3c565b60405180910390f35b348015610494575f5ffd5b506104af60048036038101906104aa91906140b6565b610dcb565b6040516104bc9190613f3c565b60405180910390f35b3480156104d0575f5ffd5b506104d9610e37565b6040516104e69190613e71565b60405180910390f35b3480156104fa575f5ffd5b506105156004803603810190610510919061410b565b610e5b565b005b348015610522575f5ffd5b5061053d60048036038101906105389190614136565b610e85565b005b34801561054a575f5ffd5b5061056560048036038101906105609190614186565b610f84565b60405161057291906141c0565b60405180910390f35b348015610586575f5ffd5b506105a1600480360381019061059c91906141d9565b610fa1565b005b3480156105ae575f5ffd5b506105b7610fc3565b6040516105c49190613f3c565b60405180910390f35b3480156105d8575f5ffd5b506105e1610fe7565b6040516105ee9190613f3c565b60405180910390f35b348015610602575f5ffd5b5061061d600480360381019061061891906141d9565b61100b565b005b34801561062a575f5ffd5b50610633611086565b005b348015610640575f5ffd5b5061065b60048036038101906106569190613e07565b6112d5565b6040516106699291906142bc565b60405180910390f35b34801561067d575f5ffd5b506106866113b7565b005b348015610693575f5ffd5b506106ae60048036038101906106a99190614136565b611486565b005b3480156106bb575f5ffd5b506106d660048036038101906106d19190613e07565b6114a5565b6040516106e49291906142e3565b60405180910390f35b3480156106f8575f5ffd5b50610713600480360381019061070e91906140b6565b6114d2565b60405161072091906141c0565b60405180910390f35b348015610734575f5ffd5b5061073d611501565b60405161074a9190613f3c565b60405180910390f35b34801561075e575f5ffd5b50610767611525565b6040516107749190613d2b565b60405180910390f35b348015610788575f5ffd5b506107a3600480360381019061079e9190613e07565b61153a565b6040516107b09190613e71565b60405180910390f35b3480156107c4575f5ffd5b506107cd61154b565b6040516107da9190614326565b60405180910390f35b6107fd60048036038101906107f89190614360565b61156f565b005b34801561080a575f5ffd5b50610813611cd1565b60405161082091906143c8565b60405180910390f35b348015610834575f5ffd5b5061084f600480360381019061084a91906143e1565b611cf5565b60405161085c9190613f3c565b60405180910390f35b348015610870575f5ffd5b5061088b600480360381019061088691906143e1565b611d0a565b6040516108989190613f3c565b60405180910390f35b3480156108ac575f5ffd5b506108b5611dc0565b6040516108c291906141c0565b60405180910390f35b3480156108d6575f5ffd5b506108f160048036038101906108ec91906141d9565b611de4565b6040516108fe9190613d2b565b60405180910390f35b348015610912575f5ffd5b5061091b611e48565b6040516109289190613db4565b60405180910390f35b34801561093c575f5ffd5b50610945611ed8565b6040516109529190613f3c565b60405180910390f35b348015610966575f5ffd5b5061096f6120b7565b005b34801561097c575f5ffd5b5061098561217c565b60405161099291906141c0565b60405180910390f35b3480156109a6575f5ffd5b506109c160048036038101906109bc919061440c565b612182565b005b3480156109ce575f5ffd5b506109e960048036038101906109e49190614186565b612198565b6040516109f69190613d2b565b60405180910390f35b348015610a0a575f5ffd5b50610a136121bf565b604051610a209190613f3c565b60405180910390f35b348015610a34575f5ffd5b50610a4f6004803603810190610a4a9190614186565b6121e3565b604051610a5c9190613d2b565b60405180910390f35b348015610a70575f5ffd5b50610a8b6004803603810190610a8691906144fa565b612200565b005b348015610a98575f5ffd5b50610ab36004803603810190610aae9190613e07565b612225565b604051610ac09190613db4565b60405180910390f35b348015610ad4575f5ffd5b50610add61228b565b604051610aea9190613d2b565b60405180910390f35b348015610afe575f5ffd5b50610b0761229e565b604051610b149190614326565b60405180910390f35b610b376004803603810190610b329190614186565b6122b2565b005b348015610b44575f5ffd5b50610b5f6004803603810190610b5a91906141d9565b612645565b005b348015610b6c575f5ffd5b50610b876004803603810190610b8291906143e1565b612667565b604051610b9491906141c0565b60405180910390f35b348015610ba8575f5ffd5b50610bc36004803603810190610bbe919061457a565b61267c565b604051610bd09190613d2b565b60405180910390f35b348015610be4575f5ffd5b50610bed61270a565b604051610bfa9190613f14565b60405180910390f35b348015610c0e575f5ffd5b50610c296004803603810190610c2491906143e1565b61272e565b604051610c369190613f3c565b60405180910390f35b348015610c4a575f5ffd5b50610c53612743565b604051610c609190613d2b565b60405180910390f35b348015610c74575f5ffd5b50610c7d612755565b604051610c8a91906143c8565b60405180910390f35b348015610c9e575f5ffd5b50610cb96004803603810190610cb491906145b8565b612779565b005b5f610cc582612a1e565b9050919050565b60605f8054610cda90614635565b80601f0160208091040260200160405190810160405280929190818152602001828054610d0690614635565b8015610d515780601f10610d2857610100808354040283529160200191610d51565b820191905f5260205f20905b815481529060010190602001808311610d3457829003601f168201915b5050505050905090565b5f610d6582612a97565b50610d6f82612b1d565b9050919050565b610d888282610d83612b56565b612b5d565b5050565b7f000000000000000000000000000000000000000000000000000000000000000081565b5f600d60019054906101000a900461ffff1661ffff16905090565b5f5f5f90505b6004811015610e31575f838260048110610dee57610ded614665565b5b60200201515f1c90505b5f8114610e2357600181610e0c91906146bf565b811690508280610e1b906146f2565b935050610df8565b508080600101915050610dd1565b50919050565b7f000000000000000000000000000000000000000000000000000000000000000081565b5f5f1b610e6781612b6f565b81600d60036101000a81548160ff0219169083151502179055505050565b5f73ffffffffffffffffffffffffffffffffffffffff168273ffffffffffffffffffffffffffffffffffffffff1603610ef5575f6040517f64a0ae92000000000000000000000000000000000000000000000000000000008152600401610eec9190613e71565b60405180910390fd5b5f610f088383610f03612b56565b612b83565b90508373ffffffffffffffffffffffffffffffffffffffff168173ffffffffffffffffffffffffffffffffffffffff1614610f7e578382826040517f64283d7b000000000000000000000000000000000000000000000000000000008152600401610f7593929190614739565b60405180910390fd5b50505050565b5f60065f8381526020019081526020015f20600101549050919050565b610faa82610f84565b610fb381612b6f565b610fbd8383612d8e565b50505050565b7f000000000000000000000000000000000000000000000000000000000000000081565b7f000000000000000000000000000000000000000000000000000000000000000081565b611013612b56565b73ffffffffffffffffffffffffffffffffffffffff168173ffffffffffffffffffffffffffffffffffffffff1614611077576040517f6697b23200000000000000000000000000000000000000000000000000000000815260040160405180910390fd5b6110818282612e78565b505050565b600d60039054906101000a900460ff161580156110cf57503273ffffffffffffffffffffffffffffffffffffffff163373ffffffffffffffffffffffffffffffffffffffff1614155b15611106576040517fba092d1600000000000000000000000000000000000000000000000000000000815260040160405180910390fd5b61110e612f62565b61111a5f5f1b33611de4565b15801561114e575061114c7fa49807205ce4d355092ef5a8a18f56e8913cf4a201fbe287825b095693c2177533611de4565b155b15611185576040517f7bb62a2100000000000000000000000000000000000000000000000000000000815260040160405180910390fd5b5f4790505f810361119657506112cb565b5f7f000000000000000000000000000000000000000000000000000000000000000090505f8173ffffffffffffffffffffffffffffffffffffffff16836040516111df9061479b565b5f6040518083038185875af1925050503d805f8114611219576040519150601f19603f3d011682016040523d82523d5f602084013e61121e565b606091505b5050905080611259576040517f90b8ec1800000000000000000000000000000000000000000000000000000000815260040160405180910390fd5b7f000000000000000000000000000000000000000000000000000000000000000073ffffffffffffffffffffffffffffffffffffffff167fffb3558b23f780f54b443e238f8b8cde524dbf6a73da7ce2562e2da3c2d3b5e2846040516112bf9190613f3c565b60405180910390a25050505b6112d3612fa8565b565b6112dd613c03565b5f6112e783612fb2565b61131d576040517fceea21b600000000000000000000000000000000000000000000000000000000815260040160405180910390fd5b5f600a5f8581526020019081526020015f206040518060600160405290815f8201600480602002604051908101604052809291908260048015611375576020028201915b815481526020019060010190808311611361575b5050505050815260200160048201548152602001600582015f9054906101000a900460ff1615151515815250509050805f015181604001519250925050915091565b5f5f1b6113c381612b6f565b600d60039054906101000a900460ff1615801561140c57503273ffffffffffffffffffffffffffffffffffffffff163373ffffffffffffffffffffffffffffffffffffffff1614155b15611443576040517fba092d1600000000000000000000000000000000000000000000000000000000815260040160405180910390fd5b61144b612fd1565b7ffc2a9c98d932afee7dc7e24d79c798a7fdc96f338084eb40b7e2a1637eacaad1600160405161147b9190613d2b565b60405180910390a150565b6114a083838360405180602001604052805f815250612200565b505050565b600a602052805f5260405f205f91509050806004015490806005015f9054906101000a900460ff16905082565b5f816040516020016114e491906147af565b604051602081830303815290604052805190602001209050919050565b7f000000000000000000000000000000000000000000000000000000000000000081565b5f60075f9054906101000a900460ff16905090565b5f61154482612a97565b9050919050565b7f000000000000000000000000000000000000000000000000000000000000000081565b611577612f62565b600d60039054906101000a900460ff161580156115c057503273ffffffffffffffffffffffffffffffffffffffff163373ffffffffffffffffffffffffffffffffffffffff1614155b156115f7576040517fba092d1600000000000000000000000000000000000000000000000000000000815260040160405180910390fd5b6115ff613033565b600d5f9054906101000a900460ff1615611645576040517f6295e52600000000000000000000000000000000000000000000000000000000815260040160405180910390fd5b5f6116858360048060200260405190810160405280929190826004602002808284375f81840152601f19601f8201169050808301925050505050506114d2565b905061169081612198565b6116c6576040517f20a0ca4600000000000000000000000000000000000000000000000000000000815260040160405180910390fd5b5f600c5f3373ffffffffffffffffffffffffffffffffffffffff1673ffffffffffffffffffffffffffffffffffffffff1681526020019081526020015f205490505f8103611740576040517f620c619d00000000000000000000000000000000000000000000000000000000815260040160405180910390fd5b5f814261174d91906146bf565b90507f000000000000000000000000000000000000000000000000000000000000000067ffffffffffffffff168110156117f357807f000000000000000000000000000000000000000000000000000000000000000067ffffffffffffffff166117b791906146bf565b6040517fcaae5ebb0000000000000000000000000000000000000000000000000000000081526004016117ea9190613f3c565b60405180910390fd5b5f85336040516020016118079291906147e1565b604051602081830303815290604052805190602001209050600b5f3373ffffffffffffffffffffffffffffffffffffffff1673ffffffffffffffffffffffffffffffffffffffff1681526020019081526020015f20548114611895576040517f5054097b00000000000000000000000000000000000000000000000000000000815260040160405180910390fd5b5f61189e611ed8565b9050803410156118da576040517f311c9fd100000000000000000000000000000000000000000000000000000000815260040160405180910390fd5b6002816118e79190614808565b341115611920576040517f685ea46e00000000000000000000000000000000000000000000000000000000815260040160405180910390fd5b8515611ace575f6119668860048060200260405190810160405280929190826004602002808284375f81840152601f19601f820116905080830192505050505050610dcb565b90507f00000000000000000000000000000000000000000000000000000000000000008110156119c2576040517f65cb033500000000000000000000000000000000000000000000000000000000815260040160405180910390fd5b7f0000000000000000000000000000000000000000000000000000000000000000600e5f3373ffffffffffffffffffffffffffffffffffffffff1673ffffffffffffffffffffffffffffffffffffffff1681526020019081526020015f20541015611a59576040517f65cb033500000000000000000000000000000000000000000000000000000000815260040160405180910390fd5b7f0000000000000000000000000000000000000000000000000000000000000000600e5f3373ffffffffffffffffffffffffffffffffffffffff1673ffffffffffffffffffffffffffffffffffffffff1681526020019081526020015f205f828254611ac591906146bf565b92505081905550505b600160095f8781526020019081526020015f205f6101000a81548160ff0219169083151502179055505f600d60019054906101000a900461ffff1661ffff169050600d600181819054906101000a900461ffff1680929190611b2f90614849565b91906101000a81548161ffff021916908361ffff1602179055505060405180606001604052808960048060200260405190810160405280929190826004602002808284375f81840152601f19601f8201169050808301925050505050508152602001428152602001881515815250600a5f8381526020019081526020015f205f820151815f01906004611bc3929190613c25565b50602082015181600401556040820151816005015f6101000a81548160ff021916908315150217905550905050600b5f3373ffffffffffffffffffffffffffffffffffffffff1673ffffffffffffffffffffffffffffffffffffffff1681526020019081526020015f205f9055600c5f3373ffffffffffffffffffffffffffffffffffffffff1673ffffffffffffffffffffffffffffffffffffffff1681526020019081526020015f205f9055611c7a3382613074565b85813373ffffffffffffffffffffffffffffffffffffffff167fc54325d42dcc3796f56fe92f0b96ca70d0588aa64a79ed13a845243de604cd3d60405160405180910390a4505050505050611ccd612fa8565b5050565b7f000000000000000000000000000000000000000000000000000000000000000081565b600e602052805f5260405f205f915090505481565b5f5f73ffffffffffffffffffffffffffffffffffffffff168273ffffffffffffffffffffffffffffffffffffffff1603611d7b575f6040517f89c62b64000000000000000000000000000000000000000000000000000000008152600401611d729190613e71565b60405180910390fd5b60035f8373ffffffffffffffffffffffffffffffffffffffff1673ffffffffffffffffffffffffffffffffffffffff1681526020019081526020015f20549050919050565b7fa49807205ce4d355092ef5a8a18f56e8913cf4a201fbe287825b095693c2177581565b5f60065f8481526020019081526020015f205f015f8373ffffffffffffffffffffffffffffffffffffffff1673ffffffffffffffffffffffffffffffffffffffff1681526020019081526020015f205f9054906101000a900460ff16905092915050565b606060018054611e5790614635565b80601f0160208091040260200160405190810160405280929190818152602001828054611e8390614635565b8015611ece5780601f10611ea557610100808354040283529160200191611ece565b820191905f5260205f20905b815481529060010190602001808311611eb157829003601f168201915b5050505050905090565b5f7f0000000000000000000000000000000000000000000000000000000000000000600d60019054906101000a900461ffff1661ffff1610611f3c577fffffffffffffffffffffffffffffffffffffffffffffffffffffffffffffffff90506120b4565b5f610e107f000000000000000000000000000000000000000000000000000000000000000067ffffffffffffffff1642611f7691906146bf565b611f80919061489f565b90505f60187f0000000000000000000000000000000000000000000000000000000000000000611fb091906148cf565b61ffff1690505f8183611fc39190614808565b90505f600d60019054906101000a900461ffff1661ffff169050818111612022577f00000000000000000000000000000000000000000000000000000000000000006fffffffffffffffffffffffffffffffff169450505050506120b4565b5f828261202f91906146bf565b90507f00000000000000000000000000000000000000000000000000000000000000006fffffffffffffffffffffffffffffffff168161206f9190614808565b7f00000000000000000000000000000000000000000000000000000000000000006fffffffffffffffffffffffffffffffff166120ac91906148ff565b955050505050505b90565b600d60039054906101000a900460ff1615801561210057503273ffffffffffffffffffffffffffffffffffffffff163373ffffffffffffffffffffffffffffffffffffffff1614155b15612137576040517fba092d1600000000000000000000000000000000000000000000000000000000815260040160405180910390fd5b3373ffffffffffffffffffffffffffffffffffffffff167f5f30ccd21ba72bf85e68cdc7f5070e485b65ddad1515d076ece238b23063563960405160405180910390a2565b5f5f1b81565b61219461218d612b56565b8383613091565b5050565b5f60095f8381526020019081526020015f205f9054906101000a900460ff16159050919050565b7f000000000000000000000000000000000000000000000000000000000000000081565b6009602052805f5260405f205f915054906101000a900460ff1681565b61220b848484610e85565b61221f612216612b56565b858585856131fa565b50505050565b606061223082612a97565b505f61223a6133a6565b90505f8151116122585760405180602001604052805f815250612283565b80612262846133bc565b60405160200161227392919061496c565b6040516020818303038152906040525b915050919050565b600d60039054906101000a900460ff1681565b600d60019054906101000a900461ffff1681565b6122ba612f62565b600d60039054906101000a900460ff1615801561230357503273ffffffffffffffffffffffffffffffffffffffff163373ffffffffffffffffffffffffffffffffffffffff1614155b1561233a576040517fba092d1600000000000000000000000000000000000000000000000000000000815260040160405180910390fd5b612342613033565b600d5f9054906101000a900460ff1615612388576040517f6295e52600000000000000000000000000000000000000000000000000000000815260040160405180910390fd5b5f34146123c1576040517f0c0682b200000000000000000000000000000000000000000000000000000000815260040160405180910390fd5b5f5f1b81036123fc576040517f29dd5dd000000000000000000000000000000000000000000000000000000000815260040160405180910390fd5b5f5f1b600b5f3373ffffffffffffffffffffffffffffffffffffffff1673ffffffffffffffffffffffffffffffffffffffff1681526020019081526020015f205414612505575f600c5f3373ffffffffffffffffffffffffffffffffffffffff1673ffffffffffffffffffffffffffffffffffffffff1681526020019081526020015f205490505f814261249091906146bf565b905060017f00000000000000000000000000000000000000000000000000000000000000006124bf919061498f565b67ffffffffffffffff16811015612502576040517f8390c4d200000000000000000000000000000000000000000000000000000000815260040160405180910390fd5b50505b7f0000000000000000000000000000000000000000000000000000000000000000600d60019054906101000a900461ffff1661ffff1610612572576040517fd05cb60900000000000000000000000000000000000000000000000000000000815260040160405180910390fd5b80600b5f3373ffffffffffffffffffffffffffffffffffffffff1673ffffffffffffffffffffffffffffffffffffffff1681526020019081526020015f208190555042600c5f3373ffffffffffffffffffffffffffffffffffffffff1673ffffffffffffffffffffffffffffffffffffffff1681526020019081526020015f2081905550803373ffffffffffffffffffffffffffffffffffffffff167fab04abcbdf301b2cedb4d47c23eac5617749881ecc51c8886bdb3ce3f2038a5f60405160405180910390a3612642612fa8565b50565b61264e82610f84565b61265781612b6f565b6126618383612e78565b50505050565b600b602052805f5260405f205f915090505481565b5f60055f8473ffffffffffffffffffffffffffffffffffffffff1673ffffffffffffffffffffffffffffffffffffffff1681526020019081526020015f205f8373ffffffffffffffffffffffffffffffffffffffff1673ffffffffffffffffffffffffffffffffffffffff1681526020019081526020015f205f9054906101000a900460ff16905092915050565b7f000000000000000000000000000000000000000000000000000000000000000081565b600c602052805f5260405f205f915090505481565b600d5f9054906101000a900460ff1681565b7f000000000000000000000000000000000000000000000000000000000000000081565b7fa49807205ce4d355092ef5a8a18f56e8913cf4a201fbe287825b095693c217756127a381612b6f565b5f73ffffffffffffffffffffffffffffffffffffffff168473ffffffffffffffffffffffffffffffffffffffff1603612808576040517fe6c4247b00000000000000000000000000000000000000000000000000000000815260040160405180910390fd5b5f8203612841576040517fb7d0949700000000000000000000000000000000000000000000000000000000815260040160405180910390fd5b4282111561287b576040517fb7d0949700000000000000000000000000000000000000000000000000000000815260040160405180910390fd5b6103e883111561288b576103e892505b5f824261289891906146bf565b90505f817f0000000000000000000000000000000000000000000000000000000000000000866128c89190614808565b6128d291906148ff565b90505f7f00000000000000000000000000000000000000000000000000000000000000000361292d576040517f23d359a300000000000000000000000000000000000000000000000000000000815260040160405180910390fd5b5f60017f00000000000000000000000000000000000000000000000000000000000000006103ff8461295f9190614808565b612969919061489f565b61297391906148ff565b90506104008111156129855761040090505b80600e5f8973ffffffffffffffffffffffffffffffffffffffff1673ffffffffffffffffffffffffffffffffffffffff1681526020019081526020015f20819055508673ffffffffffffffffffffffffffffffffffffffff167f853af9debb51ae789da87f53d072a54454a94d58d7cf187e6c6a80c93edabf0f82604051612a0d9190613f3c565b60405180910390a250505050505050565b5f7f7965db0b000000000000000000000000000000000000000000000000000000007bffffffffffffffffffffffffffffffffffffffffffffffffffffffff1916827bffffffffffffffffffffffffffffffffffffffffffffffffffffffff19161480612a905750612a8f82613486565b5b9050919050565b5f5f612aa283613567565b90505f73ffffffffffffffffffffffffffffffffffffffff168173ffffffffffffffffffffffffffffffffffffffff1603612b1457826040517f7e273289000000000000000000000000000000000000000000000000000000008152600401612b0b9190613f3c565b60405180910390fd5b80915050919050565b5f60045f8381526020019081526020015f205f9054906101000a900473ffffffffffffffffffffffffffffffffffffffff169050919050565b5f33905090565b612b6a83838360016135a0565b505050565b612b8081612b7b612b56565b61375f565b50565b5f5f612b8e84613567565b90505f73ffffffffffffffffffffffffffffffffffffffff168373ffffffffffffffffffffffffffffffffffffffff1614612bcf57612bce8184866137b0565b5b5f73ffffffffffffffffffffffffffffffffffffffff168173ffffffffffffffffffffffffffffffffffffffff1614612c5a57612c0e5f855f5f6135a0565b600160035f8373ffffffffffffffffffffffffffffffffffffffff1673ffffffffffffffffffffffffffffffffffffffff1681526020019081526020015f205f82825403925050819055505b5f73ffffffffffffffffffffffffffffffffffffffff168573ffffffffffffffffffffffffffffffffffffffff1614612cd957600160035f8773ffffffffffffffffffffffffffffffffffffffff1673ffffffffffffffffffffffffffffffffffffffff1681526020019081526020015f205f82825401925050819055505b8460025f8681526020019081526020015f205f6101000a81548173ffffffffffffffffffffffffffffffffffffffff021916908373ffffffffffffffffffffffffffffffffffffffff160217905550838573ffffffffffffffffffffffffffffffffffffffff168273ffffffffffffffffffffffffffffffffffffffff167fddf252ad1be2c89b69c2b068fc378daa952ba7f163c4a11628f55a4df523b3ef60405160405180910390a4809150509392505050565b5f612d998383611de4565b612e6e57600160065f8581526020019081526020015f205f015f8473ffffffffffffffffffffffffffffffffffffffff1673ffffffffffffffffffffffffffffffffffffffff1681526020019081526020015f205f6101000a81548160ff021916908315150217905550612e0b612b56565b73ffffffffffffffffffffffffffffffffffffffff168273ffffffffffffffffffffffffffffffffffffffff16847f2f8788117e7eff1d82e926ec794901d17c78024a50270940304540a733656f0d60405160405180910390a460019050612e72565b5f90505b92915050565b5f612e838383611de4565b15612f58575f60065f8581526020019081526020015f205f015f8473ffffffffffffffffffffffffffffffffffffffff1673ffffffffffffffffffffffffffffffffffffffff1681526020019081526020015f205f6101000a81548160ff021916908315150217905550612ef5612b56565b73ffffffffffffffffffffffffffffffffffffffff168273ffffffffffffffffffffffffffffffffffffffff16847ff6391f5c32d9c69d2a47ea670b442974b53935d1edc7fd64eb21e047a839171b60405160405180910390a460019050612f5c565b5f90505b92915050565b600260085403612f9e576040517f3ee5aeb500000000000000000000000000000000000000000000000000000000815260040160405180910390fd5b6002600881905550565b6001600881905550565b5f600d60019054906101000a900461ffff1661ffff1682109050919050565b612fd9613033565b600160075f6101000a81548160ff0219169083151502179055507f62e78cea01bee320cd4e420270b5ea74000d11b0c9f74754ebdbfc544b05a25861301c612b56565b6040516130299190613e71565b60405180910390a1565b61303b611525565b15613072576040517fd93c066500000000000000000000000000000000000000000000000000000000815260040160405180910390fd5b565b61308d828260405180602001604052805f815250613873565b5050565b5f73ffffffffffffffffffffffffffffffffffffffff168273ffffffffffffffffffffffffffffffffffffffff160361310157816040517f5b08ba180000000000000000000000000000000000000000000000000000000081526004016130f89190613e71565b60405180910390fd5b8060055f8573ffffffffffffffffffffffffffffffffffffffff1673ffffffffffffffffffffffffffffffffffffffff1681526020019081526020015f205f8473ffffffffffffffffffffffffffffffffffffffff1673ffffffffffffffffffffffffffffffffffffffff1681526020019081526020015f205f6101000a81548160ff0219169083151502179055508173ffffffffffffffffffffffffffffffffffffffff168373ffffffffffffffffffffffffffffffffffffffff167f17307eab39ab6107e8899845ad3d59bd9653f200f220920489ca2b5937696c31836040516131ed9190613d2b565b60405180910390a3505050565b5f8373ffffffffffffffffffffffffffffffffffffffff163b111561339f578273ffffffffffffffffffffffffffffffffffffffff1663150b7a02868685856040518563ffffffff1660e01b81526004016132589493929190614a1c565b6020604051808303815f875af192505050801561329357506040513d601f19601f820116820180604052508101906132909190614a7a565b60015b613314573d805f81146132c1576040519150601f19603f3d011682016040523d82523d5f602084013e6132c6565b606091505b505f81510361330c57836040517f64a0ae920000000000000000000000000000000000000000000000000000000081526004016133039190613e71565b60405180910390fd5b805181602001fd5b63150b7a0260e01b7bffffffffffffffffffffffffffffffffffffffffffffffffffffffff1916817bffffffffffffffffffffffffffffffffffffffffffffffffffffffff19161461339d57836040517f64a0ae920000000000000000000000000000000000000000000000000000000081526004016133949190613e71565b60405180910390fd5b505b5050505050565b606060405180602001604052805f815250905090565b60605f60016133ca84613896565b0190505f8167ffffffffffffffff8111156133e8576133e7613f59565b5b6040519080825280601f01601f19166020018201604052801561341a5781602001600182028036833780820191505090505b5090505f82602001820190505b60011561347b578080600190039150507f3031323334353637383961626364656600000000000000000000000000000000600a86061a8153600a85816134705761346f614872565b5b0494505f8503613427575b819350505050919050565b5f7f80ac58cd000000000000000000000000000000000000000000000000000000007bffffffffffffffffffffffffffffffffffffffffffffffffffffffff1916827bffffffffffffffffffffffffffffffffffffffffffffffffffffffff1916148061355057507f5b5e139f000000000000000000000000000000000000000000000000000000007bffffffffffffffffffffffffffffffffffffffffffffffffffffffff1916827bffffffffffffffffffffffffffffffffffffffffffffffffffffffff1916145b80613560575061355f826139e7565b5b9050919050565b5f60025f8381526020019081526020015f205f9054906101000a900473ffffffffffffffffffffffffffffffffffffffff169050919050565b80806135d857505f73ffffffffffffffffffffffffffffffffffffffff168273ffffffffffffffffffffffffffffffffffffffff1614155b1561370a575f6135e784612a97565b90505f73ffffffffffffffffffffffffffffffffffffffff168373ffffffffffffffffffffffffffffffffffffffff161415801561365157508273ffffffffffffffffffffffffffffffffffffffff168173ffffffffffffffffffffffffffffffffffffffff1614155b80156136645750613662818461267c565b155b156136a657826040517fa9fbf51f00000000000000000000000000000000000000000000000000000000815260040161369d9190613e71565b60405180910390fd5b811561370857838573ffffffffffffffffffffffffffffffffffffffff168273ffffffffffffffffffffffffffffffffffffffff167f8c5be1e5ebec7d5bd14f71427d1e84f3dd0314c0f7b2291e5b200ac8c7c3b92560405160405180910390a45b505b8360045f8581526020019081526020015f205f6101000a81548173ffffffffffffffffffffffffffffffffffffffff021916908373ffffffffffffffffffffffffffffffffffffffff16021790555050505050565b6137698282611de4565b6137ac5780826040517fe2517d3f0000000000000000000000000000000000000000000000000000000081526004016137a3929190614aa5565b60405180910390fd5b5050565b6137bb838383613a50565b61386e575f73ffffffffffffffffffffffffffffffffffffffff168373ffffffffffffffffffffffffffffffffffffffff160361382f57806040517f7e2732890000000000000000000000000000000000000000000000000000000081526004016138269190613f3c565b60405180910390fd5b81816040517f177e802f000000000000000000000000000000000000000000000000000000008152600401613865929190614acc565b60405180910390fd5b505050565b61387d8383613b10565b613891613888612b56565b5f8585856131fa565b505050565b5f5f5f90507a184f03e93ff9f4daa797ed6e38ed64bf6a1f01000000000000000083106138f2577a184f03e93ff9f4daa797ed6e38ed64bf6a1f01000000000000000083816138e8576138e7614872565b5b0492506040810190505b6d04ee2d6d415b85acef8100000000831061392f576d04ee2d6d415b85acef8100000000838161392557613924614872565b5b0492506020810190505b662386f26fc10000831061395e57662386f26fc10000838161395457613953614872565b5b0492506010810190505b6305f5e1008310613987576305f5e100838161397d5761397c614872565b5b0492506008810190505b61271083106139ac5761271083816139a2576139a1614872565b5b0492506004810190505b606483106139cf57606483816139c5576139c4614872565b5b0492506002810190505b600a83106139de576001810190505b80915050919050565b5f7f01ffc9a7000000000000000000000000000000000000000000000000000000007bffffffffffffffffffffffffffffffffffffffffffffffffffffffff1916827bffffffffffffffffffffffffffffffffffffffffffffffffffffffff1916149050919050565b5f5f73ffffffffffffffffffffffffffffffffffffffff168373ffffffffffffffffffffffffffffffffffffffff1614158015613b0757508273ffffffffffffffffffffffffffffffffffffffff168473ffffffffffffffffffffffffffffffffffffffff161480613ac85750613ac7848461267c565b5b80613b0657508273ffffffffffffffffffffffffffffffffffffffff16613aee83612b1d565b73ffffffffffffffffffffffffffffffffffffffff16145b5b90509392505050565b5f73ffffffffffffffffffffffffffffffffffffffff168273ffffffffffffffffffffffffffffffffffffffff1603613b80575f6040517f64a0ae92000000000000000000000000000000000000000000000000000000008152600401613b779190613e71565b60405180910390fd5b5f613b8c83835f612b83565b90505f73ffffffffffffffffffffffffffffffffffffffff168173ffffffffffffffffffffffffffffffffffffffff1614613bfe575f6040517f73c6ac6e000000000000000000000000000000000000000000000000000000008152600401613bf59190613e71565b60405180910390fd5b505050565b6040518060800160405280600490602082028036833780820191505090505090565b8260048101928215613c54579160200282015b82811115613c53578251825591602001919060010190613c38565b5b509050613c619190613c65565b5090565b5b80821115613c7c575f815f905550600101613c66565b5090565b5f604051905090565b5f5ffd5b5f5ffd5b5f7fffffffff0000000000000000000000000000000000000000000000000000000082169050919050565b613cc581613c91565b8114613ccf575f5ffd5b50565b5f81359050613ce081613cbc565b92915050565b5f60208284031215613cfb57613cfa613c89565b5b5f613d0884828501613cd2565b91505092915050565b5f8115159050919050565b613d2581613d11565b82525050565b5f602082019050613d3e5f830184613d1c565b92915050565b5f81519050919050565b5f82825260208201905092915050565b8281835e5f83830152505050565b5f601f19601f8301169050919050565b5f613d8682613d44565b613d908185613d4e565b9350613da0818560208601613d5e565b613da981613d6c565b840191505092915050565b5f6020820190508181035f830152613dcc8184613d7c565b905092915050565b5f819050919050565b613de681613dd4565b8114613df0575f5ffd5b50565b5f81359050613e0181613ddd565b92915050565b5f60208284031215613e1c57613e1b613c89565b5b5f613e2984828501613df3565b91505092915050565b5f73ffffffffffffffffffffffffffffffffffffffff82169050919050565b5f613e5b82613e32565b9050919050565b613e6b81613e51565b82525050565b5f602082019050613e845f830184613e62565b92915050565b613e9381613e51565b8114613e9d575f5ffd5b50565b5f81359050613eae81613e8a565b92915050565b5f5f60408385031215613eca57613ec9613c89565b5b5f613ed785828601613ea0565b9250506020613ee885828601613df3565b9150509250929050565b5f67ffffffffffffffff82169050919050565b613f0e81613ef2565b82525050565b5f602082019050613f275f830184613f05565b92915050565b613f3681613dd4565b82525050565b5f602082019050613f4f5f830184613f2d565b92915050565b5f5ffd5b7f4e487b71000000000000000000000000000000000000000000000000000000005f52604160045260245ffd5b613f8f82613d6c565b810181811067ffffffffffffffff82111715613fae57613fad613f59565b5b80604052505050565b5f613fc0613c80565b9050613fcc8282613f86565b919050565b5f67ffffffffffffffff821115613feb57613fea613f59565b5b602082029050919050565b5f5ffd5b5f819050919050565b61400c81613ffa565b8114614016575f5ffd5b50565b5f8135905061402781614003565b92915050565b5f61403f61403a84613fd1565b613fb7565b9050806020840283018581111561405957614058613ff6565b5b835b81811015614082578061406e8882614019565b84526020840193505060208101905061405b565b5050509392505050565b5f82601f8301126140a05761409f613f55565b5b60046140ad84828561402d565b91505092915050565b5f608082840312156140cb576140ca613c89565b5b5f6140d88482850161408c565b91505092915050565b6140ea81613d11565b81146140f4575f5ffd5b50565b5f81359050614105816140e1565b92915050565b5f602082840312156141205761411f613c89565b5b5f61412d848285016140f7565b91505092915050565b5f5f5f6060848603121561414d5761414c613c89565b5b5f61415a86828701613ea0565b935050602061416b86828701613ea0565b925050604061417c86828701613df3565b9150509250925092565b5f6020828403121561419b5761419a613c89565b5b5f6141a884828501614019565b91505092915050565b6141ba81613ffa565b82525050565b5f6020820190506141d35f8301846141b1565b92915050565b5f5f604083850312156141ef576141ee613c89565b5b5f6141fc85828601614019565b925050602061420d85828601613ea0565b9150509250929050565b5f60049050919050565b5f81905092915050565b5f819050919050565b61423d81613ffa565b82525050565b5f61424e8383614234565b60208301905092915050565b5f602082019050919050565b61426f81614217565b6142798184614221565b92506142848261422b565b805f5b838110156142b457815161429b8782614243565b96506142a68361425a565b925050600181019050614287565b505050505050565b5f60a0820190506142cf5f830185614266565b6142dc6080830184613d1c565b9392505050565b5f6040820190506142f65f830185613f2d565b6143036020830184613d1c565b9392505050565b5f61ffff82169050919050565b6143208161430a565b82525050565b5f6020820190506143395f830184614317565b92915050565b5f8190508260206004028201111561435a57614359613ff6565b5b92915050565b5f5f60a0838503121561437657614375613c89565b5b5f6143838582860161433f565b9250506080614394858286016140f7565b9150509250929050565b5f6fffffffffffffffffffffffffffffffff82169050919050565b6143c28161439e565b82525050565b5f6020820190506143db5f8301846143b9565b92915050565b5f602082840312156143f6576143f5613c89565b5b5f61440384828501613ea0565b91505092915050565b5f5f6040838503121561442257614421613c89565b5b5f61442f85828601613ea0565b9250506020614440858286016140f7565b9150509250929050565b5f5ffd5b5f67ffffffffffffffff82111561446857614467613f59565b5b61447182613d6c565b9050602081019050919050565b828183375f83830152505050565b5f61449e6144998461444e565b613fb7565b9050828152602081018484840111156144ba576144b961444a565b5b6144c584828561447e565b509392505050565b5f82601f8301126144e1576144e0613f55565b5b81356144f184826020860161448c565b91505092915050565b5f5f5f5f6080858703121561451257614511613c89565b5b5f61451f87828801613ea0565b945050602061453087828801613ea0565b935050604061454187828801613df3565b925050606085013567ffffffffffffffff81111561456257614561613c8d565b5b61456e878288016144cd565b91505092959194509250565b5f5f604083850312156145905761458f613c89565b5b5f61459d85828601613ea0565b92505060206145ae85828601613ea0565b9150509250929050565b5f5f5f606084860312156145cf576145ce613c89565b5b5f6145dc86828701613ea0565b93505060206145ed86828701613df3565b92505060406145fe86828701613df3565b9150509250925092565b7f4e487b71000000000000000000000000000000000000000000000000000000005f52602260045260245ffd5b5f600282049050600182168061464c57607f821691505b60208210810361465f5761465e614608565b5b50919050565b7f4e487b71000000000000000000000000000000000000000000000000000000005f52603260045260245ffd5b7f4e487b71000000000000000000000000000000000000000000000000000000005f52601160045260245ffd5b5f6146c982613dd4565b91506146d483613dd4565b92508282039050818111156146ec576146eb614692565b5b92915050565b5f6146fc82613dd4565b91507fffffffffffffffffffffffffffffffffffffffffffffffffffffffffffffffff820361472e5761472d614692565b5b600182019050919050565b5f60608201905061474c5f830186613e62565b6147596020830185613f2d565b6147666040830184613e62565b949350505050565b5f81905092915050565b50565b5f6147865f8361476e565b915061479182614778565b5f82019050919050565b5f6147a58261477b565b9150819050919050565b5f6080820190506147c25f830184614266565b92915050565b82818337505050565b6147dd608083836147c8565b5050565b5f60a0820190506147f45f8301856147d1565b6148016080830184613e62565b9392505050565b5f61481282613dd4565b915061481d83613dd4565b925082820261482b81613dd4565b9150828204841483151761484257614841614692565b5b5092915050565b5f6148538261430a565b915061ffff820361486757614866614692565b5b600182019050919050565b7f4e487b71000000000000000000000000000000000000000000000000000000005f52601260045260245ffd5b5f6148a982613dd4565b91506148b483613dd4565b9250826148c4576148c3614872565b5b828204905092915050565b5f6148d98261430a565b91506148e48361430a565b9250826148f4576148f3614872565b5b828204905092915050565b5f61490982613dd4565b915061491483613dd4565b925082820190508082111561492c5761492b614692565b5b92915050565b5f81905092915050565b5f61494682613d44565b6149508185614932565b9350614960818560208601613d5e565b80840191505092915050565b5f614977828561493c565b9150614983828461493c565b91508190509392505050565b5f61499982613ef2565b91506149a483613ef2565b9250828201905067ffffffffffffffff8111156149c4576149c3614692565b5b92915050565b5f81519050919050565b5f82825260208201905092915050565b5f6149ee826149ca565b6149f881856149d4565b9350614a08818560208601613d5e565b614a1181613d6c565b840191505092915050565b5f608082019050614a2f5f830187613e62565b614a3c6020830186613e62565b614a496040830185613f2d565b8181036060830152614a5b81846149e4565b905095945050505050565b5f81519050614a7481613cbc565b92915050565b5f60208284031215614a8f57614a8e613c89565b5b5f614a9c84828501614a66565b91505092915050565b5f604082019050614ab85f830185613e62565b614ac560208301846141b1565b9392505050565b5f604082019050614adf5f830185613e62565b614aec6020830184613f2d565b939250505056fea264697066735822122032795198a094e6f1d06153170129f1973654c5362e194c8d624d3512c354787264736f6c634300081c0033","linkReferences":{}},"methodIdentifiers":{"ADMIN_ROLE()":"75b238fc","BASE_PRICE()":"f86325ed","COLOR_MODE_THRESHOLD()":"3223966a","COMMITMENT_DELAY()":"11a733f6","DEFAULT_ADMIN_ROLE()":"a217fddf","EXTERNAL_WALLET()":"1ecd6962","MAX_PRODUCT()":"4be0d92b","MAX_SUPPLY()":"32cb6b0c","NONCE_MULTIPLIER()":"b3a45c46","PRICE_INCREMENT()":"6d25d802","TOKENS_PER_DAY()":"6678fee3","approve(address,uint256)":"095ea7b3","artNFTs(uint256)":"45961837","availablePixels(address)":"6f2449da","balanceOf(address)":"70a08231","commitmentTimestamps(address)":"f17ea18b","commitments(address)":"e8fcf723","countBlackPixels(bytes32[4])":"1b543980","currentPrice()":"9d1b464a","deploymentTime()":"ecda10f5","generateArtHash(bytes32[4])":"4bd1140b","getApproved(uint256)":"081812fc","getArtData(uint256)":"3d22a2a9","getRoleAdmin(bytes32)":"248a9ca3","grantRole(bytes32,address)":"2f2ff15d","hasRole(bytes32,address)":"91d14854","isApprovedForAll(address,address)":"e985e9c5","isArtUnique(bytes32)":"a2ba638e","mintNFT(bytes32[4],bool)":"69051e7c","mintedArts(bytes32)":"b3e201f7","mintingStopped()":"f339292f","name()":"06fdde03","ownerOf(uint256)":"6352211e","paused()":"5c975abb","renounceRole(bytes32,address)":"36568abe","requestAvailableBlockUpdate()":"9dddd0b6","revokeRole(bytes32,address)":"d547741f","safeTransferFrom(address,address,uint256)":"42842e0e","safeTransferFrom(address,address,uint256,bytes)":"b88d4fde","setApprovalForAll(address,bool)":"a22cb465","setTestMode(bool)":"1ff1292f","startMinting(bytes32)":"d3f53c19","stopMinting()":"3e3e0b12","supportsInterface(bytes4)":"01ffc9a7","symbol()":"95d89b41","testMode()":"cd9ea342","tokenCounter()":"d082e381","tokenURI(uint256)":"c87b56dd","totalSupply()":"18160ddd","transferFrom(address,address,uint256)":"23b872dd","updateAvailableBlocks(address,uint256,uint256)":"fff56aef","withdraw()":"3ccfd60b"},"id":36}